{
  "contractName": "Burnlist",
  "abi": [
    {
      "constant": true,
      "inputs": [
        {
          "name": "",
          "type": "address"
        }
      ],
      "name": "owners",
      "outputs": [
        {
          "name": "",
          "type": "bool"
        }
      ],
      "payable": false,
      "stateMutability": "view",
      "type": "function"
    },
    {
      "constant": true,
      "inputs": [
        {
          "name": "",
          "type": "address"
        }
      ],
      "name": "burners",
      "outputs": [
        {
          "name": "",
          "type": "bool"
        }
      ],
      "payable": false,
      "stateMutability": "view",
      "type": "function"
    },
    {
      "constant": false,
      "inputs": [
        {
          "name": "owner",
          "type": "address"
        },
        {
          "name": "num",
          "type": "uint8"
        }
      ],
      "name": "addOwner",
      "outputs": [
        {
          "name": "",
          "type": "bool"
        }
      ],
      "payable": false,
      "stateMutability": "nonpayable",
      "type": "function"
    },
    {
      "constant": false,
      "inputs": [
        {
          "name": "_toDeleteJudge",
          "type": "address"
        },
        {
          "name": "_num",
          "type": "uint8"
        }
      ],
      "name": "deleteJudge",
      "outputs": [
        {
          "name": "",
          "type": "bool"
        }
      ],
      "payable": false,
      "stateMutability": "nonpayable",
      "type": "function"
    },
    {
      "constant": false,
      "inputs": [
        {
          "name": "_depositWallet",
          "type": "address"
        }
      ],
      "name": "delDepositWallet",
      "outputs": [
        {
          "name": "",
          "type": "bool"
        }
      ],
      "payable": false,
      "stateMutability": "nonpayable",
      "type": "function"
    },
    {
      "constant": true,
      "inputs": [
        {
          "name": "",
          "type": "uint256"
        }
      ],
      "name": "chkBurnerList",
      "outputs": [
        {
          "name": "",
          "type": "address"
        }
      ],
      "payable": false,
      "stateMutability": "view",
      "type": "function"
    },
    {
      "constant": true,
      "inputs": [],
      "name": "tokenManager",
      "outputs": [
        {
          "name": "",
          "type": "address"
        }
      ],
      "payable": false,
      "stateMutability": "view",
      "type": "function"
    },
    {
      "constant": false,
      "inputs": [
        {
          "name": "_newTokenManager",
          "type": "address"
        }
      ],
      "name": "transferTokenManagerRole",
      "outputs": [
        {
          "name": "",
          "type": "bool"
        }
      ],
      "payable": false,
      "stateMutability": "nonpayable",
      "type": "function"
    },
    {
      "constant": true,
      "inputs": [
        {
          "name": "",
          "type": "address"
        }
      ],
      "name": "isburnlist",
      "outputs": [
        {
          "name": "",
          "type": "bool"
        }
      ],
      "payable": false,
      "stateMutability": "view",
      "type": "function"
    },
    {
      "constant": false,
      "inputs": [
        {
          "name": "newSuperOwner",
          "type": "address"
        }
      ],
      "name": "changeSuperOwnership",
      "outputs": [
        {
          "name": "",
          "type": "bool"
        }
      ],
      "payable": false,
      "stateMutability": "nonpayable",
      "type": "function"
    },
    {
      "constant": true,
      "inputs": [
        {
          "name": "node",
          "type": "address"
        }
      ],
      "name": "isPermitted",
      "outputs": [
        {
          "name": "",
          "type": "bool"
        }
      ],
      "payable": false,
      "stateMutability": "view",
      "type": "function"
    },
    {
      "constant": false,
      "inputs": [
        {
          "name": "_wallet",
          "type": "address"
        }
      ],
      "name": "transferWithdrawalWallet",
      "outputs": [
        {
          "name": "",
          "type": "bool"
        }
      ],
      "payable": false,
      "stateMutability": "nonpayable",
      "type": "function"
    },
    {
      "constant": true,
      "inputs": [],
      "name": "withdrawalWallet",
      "outputs": [
        {
          "name": "",
          "type": "address"
        }
      ],
      "payable": false,
      "stateMutability": "view",
      "type": "function"
    },
    {
      "constant": false,
      "inputs": [
        {
          "name": "owner",
          "type": "address"
        },
        {
          "name": "num",
          "type": "uint8"
        }
      ],
      "name": "deleteOwner",
      "outputs": [
        {
          "name": "",
          "type": "bool"
        }
      ],
      "payable": false,
      "stateMutability": "nonpayable",
      "type": "function"
    },
    {
      "constant": true,
      "inputs": [
        {
          "name": "",
          "type": "uint256"
        }
      ],
      "name": "chkJudgeList",
      "outputs": [
        {
          "name": "",
          "type": "address"
        }
      ],
      "payable": false,
      "stateMutability": "view",
      "type": "function"
    },
    {
      "constant": false,
      "inputs": [
        {
          "name": "_newJudge",
          "type": "address"
        },
        {
          "name": "_num",
          "type": "uint8"
        }
      ],
      "name": "addJudge",
      "outputs": [
        {
          "name": "",
          "type": "bool"
        }
      ],
      "payable": false,
      "stateMutability": "nonpayable",
      "type": "function"
    },
    {
      "constant": false,
      "inputs": [
        {
          "name": "_newBank",
          "type": "address"
        }
      ],
      "name": "transferBankOwnership",
      "outputs": [
        {
          "name": "",
          "type": "bool"
        }
      ],
      "payable": false,
      "stateMutability": "nonpayable",
      "type": "function"
    },
    {
      "constant": false,
      "inputs": [
        {
          "name": "_depositWallet",
          "type": "address"
        }
      ],
      "name": "setDepositWallet",
      "outputs": [
        {
          "name": "",
          "type": "bool"
        }
      ],
      "payable": false,
      "stateMutability": "nonpayable",
      "type": "function"
    },
    {
      "constant": false,
      "inputs": [
        {
          "name": "node",
          "type": "address"
        }
      ],
      "name": "unblacklist",
      "outputs": [
        {
          "name": "",
          "type": "bool"
        }
      ],
      "payable": false,
      "stateMutability": "nonpayable",
      "type": "function"
    },
    {
      "constant": true,
      "inputs": [],
      "name": "bank",
      "outputs": [
        {
          "name": "",
          "type": "address"
        }
      ],
      "payable": false,
      "stateMutability": "view",
      "type": "function"
    },
    {
      "constant": true,
      "inputs": [
        {
          "name": "",
          "type": "address"
        }
      ],
      "name": "judges",
      "outputs": [
        {
          "name": "",
          "type": "bool"
        }
      ],
      "payable": false,
      "stateMutability": "view",
      "type": "function"
    },
    {
      "constant": true,
      "inputs": [],
      "name": "superOwner",
      "outputs": [
        {
          "name": "",
          "type": "address"
        }
      ],
      "payable": false,
      "stateMutability": "view",
      "type": "function"
    },
    {
      "constant": false,
      "inputs": [
        {
          "name": "newHiddenOwner",
          "type": "address"
        }
      ],
      "name": "changeHiddenOwnership",
      "outputs": [
        {
          "name": "",
          "type": "bool"
        }
      ],
      "payable": false,
      "stateMutability": "nonpayable",
      "type": "function"
    },
    {
      "constant": true,
      "inputs": [
        {
          "name": "",
          "type": "address"
        }
      ],
      "name": "depositWallet",
      "outputs": [
        {
          "name": "",
          "type": "bool"
        }
      ],
      "payable": false,
      "stateMutability": "view",
      "type": "function"
    },
    {
      "constant": true,
      "inputs": [],
      "name": "reclaimer",
      "outputs": [
        {
          "name": "",
          "type": "address"
        }
      ],
      "payable": false,
      "stateMutability": "view",
      "type": "function"
    },
    {
      "constant": true,
      "inputs": [
        {
          "name": "",
          "type": "uint256"
        }
      ],
      "name": "chkOwnerList",
      "outputs": [
        {
          "name": "",
          "type": "address"
        }
      ],
      "payable": false,
      "stateMutability": "view",
      "type": "function"
    },
    {
      "constant": false,
      "inputs": [
        {
          "name": "burner",
          "type": "address"
        },
        {
          "name": "num",
          "type": "uint8"
        }
      ],
      "name": "addBurner",
      "outputs": [
        {
          "name": "",
          "type": "bool"
        }
      ],
      "payable": false,
      "stateMutability": "nonpayable",
      "type": "function"
    },
    {
      "constant": false,
      "inputs": [
        {
          "name": "newReclaimer",
          "type": "address"
        }
      ],
      "name": "changeReclaimer",
      "outputs": [
        {
          "name": "",
          "type": "bool"
        }
      ],
      "payable": false,
      "stateMutability": "nonpayable",
      "type": "function"
    },
    {
      "constant": false,
      "inputs": [
        {
          "name": "node",
          "type": "address"
        }
      ],
      "name": "blacklist",
      "outputs": [
        {
          "name": "",
          "type": "bool"
        }
      ],
      "payable": false,
      "stateMutability": "nonpayable",
      "type": "function"
    },
    {
      "constant": true,
      "inputs": [],
      "name": "hiddenOwner",
      "outputs": [
        {
          "name": "",
          "type": "address"
        }
      ],
      "payable": false,
      "stateMutability": "view",
      "type": "function"
    },
    {
      "constant": false,
      "inputs": [
        {
          "name": "burner",
          "type": "address"
        },
        {
          "name": "num",
          "type": "uint8"
        }
      ],
      "name": "deleteBurner",
      "outputs": [
        {
          "name": "",
          "type": "bool"
        }
      ],
      "payable": false,
      "stateMutability": "nonpayable",
      "type": "function"
    },
    {
      "anonymous": false,
      "inputs": [
        {
          "indexed": true,
          "name": "burnlist",
          "type": "address"
        },
        {
          "indexed": false,
          "name": "signal",
          "type": "bool"
        }
      ],
      "name": "Burnlisted",
      "type": "event"
    },
    {
      "anonymous": false,
      "inputs": [
        {
          "indexed": true,
          "name": "blacklist",
          "type": "address"
        }
      ],
      "name": "Blacklisted",
      "type": "event"
    },
    {
      "anonymous": false,
      "inputs": [
        {
          "indexed": true,
          "name": "whitelist",
          "type": "address"
        }
      ],
      "name": "Whitelisted",
      "type": "event"
    },
    {
      "anonymous": false,
      "inputs": [
        {
          "indexed": true,
          "name": "newBurner",
          "type": "address"
        }
      ],
      "name": "AddedBurner",
      "type": "event"
    },
    {
      "anonymous": false,
      "inputs": [
        {
          "indexed": true,
          "name": "newOwner",
          "type": "address"
        }
      ],
      "name": "AddedOwner",
      "type": "event"
    },
    {
      "anonymous": false,
      "inputs": [
        {
          "indexed": true,
          "name": "toDeleteOwner",
          "type": "address"
        }
      ],
      "name": "DeletedOwner",
      "type": "event"
    },
    {
      "anonymous": false,
      "inputs": [
        {
          "indexed": true,
          "name": "toDeleteBurner",
          "type": "address"
        }
      ],
      "name": "DeletedBurner",
      "type": "event"
    },
    {
      "anonymous": false,
      "inputs": [
        {
          "indexed": true,
          "name": "newReclaimer",
          "type": "address"
        }
      ],
      "name": "ChangedReclaimer",
      "type": "event"
    },
    {
      "anonymous": false,
      "inputs": [
        {
          "indexed": true,
          "name": "newBank",
          "type": "address"
        }
      ],
      "name": "ChangedBank",
      "type": "event"
    },
    {
      "anonymous": false,
      "inputs": [
        {
          "indexed": true,
          "name": "newSuperOwner",
          "type": "address"
        }
      ],
      "name": "ChangedSuperOwner",
      "type": "event"
    },
    {
      "anonymous": false,
      "inputs": [
        {
          "indexed": true,
          "name": "newHiddenOwner",
          "type": "address"
        }
      ],
      "name": "ChangedHiddenOwner",
      "type": "event"
    },
    {
      "anonymous": false,
      "inputs": [
        {
          "indexed": true,
          "name": "newTokenManager",
          "type": "address"
        }
      ],
      "name": "ChangedTokenManager",
      "type": "event"
    },
    {
      "anonymous": false,
      "inputs": [
        {
          "indexed": true,
          "name": "newWithdrawalWallet",
          "type": "address"
        }
      ],
      "name": "ChangedWithdrawalWallet",
      "type": "event"
    },
    {
      "anonymous": false,
      "inputs": [
        {
          "indexed": true,
          "name": "_wallet",
          "type": "address"
        }
      ],
      "name": "SetDepositWallet",
      "type": "event"
    },
    {
      "anonymous": false,
      "inputs": [
        {
          "indexed": true,
          "name": "_wallet",
          "type": "address"
        }
      ],
      "name": "DelDepositWallet",
      "type": "event"
    },
    {
      "anonymous": false,
      "inputs": [
        {
          "indexed": true,
          "name": "_newJudge",
          "type": "address"
        },
        {
          "indexed": false,
          "name": "_number",
          "type": "uint8"
        }
      ],
      "name": "AddedJudge",
      "type": "event"
    },
    {
      "anonymous": false,
      "inputs": [
        {
          "indexed": true,
          "name": "_newJudge",
          "type": "address"
        },
        {
          "indexed": false,
          "name": "_number",
          "type": "uint8"
        }
      ],
      "name": "DeletedJudge",
      "type": "event"
    },
    {
      "constant": false,
      "inputs": [
        {
          "name": "node",
          "type": "address"
        }
      ],
      "name": "addBurnlist",
      "outputs": [
        {
          "name": "",
          "type": "bool"
        }
      ],
      "payable": false,
      "stateMutability": "nonpayable",
      "type": "function"
    },
    {
      "constant": false,
      "inputs": [
        {
          "name": "node",
          "type": "address"
        }
      ],
      "name": "delBurnlist",
      "outputs": [
        {
          "name": "",
          "type": "bool"
        }
      ],
      "payable": false,
      "stateMutability": "nonpayable",
      "type": "function"
    }
  ],
  "bytecode": "0x6080604052336000806101000a81548173ffffffffffffffffffffffffffffffffffffffff021916908373ffffffffffffffffffffffffffffffffffffffff16021790555033600160006101000a81548173ffffffffffffffffffffffffffffffffffffffff021916908373ffffffffffffffffffffffffffffffffffffffff16021790555033600260006101000a81548173ffffffffffffffffffffffffffffffffffffffff021916908373ffffffffffffffffffffffffffffffffffffffff1602179055506001601e60003373ffffffffffffffffffffffffffffffffffffffff1673ffffffffffffffffffffffffffffffffffffffff16815260200190815260200160002060006101000a81548160ff02191690831515021790555033600c6000600f8110151561012f57fe5b0160006101000a81548173ffffffffffffffffffffffffffffffffffffffff021916908373ffffffffffffffffffffffffffffffffffffffff16021790555033600460006101000a81548173ffffffffffffffffffffffffffffffffffffffff021916908373ffffffffffffffffffffffffffffffffffffffff160217905550613819806101be6000396000f3fe60806040526004361061019b576000357c010000000000000000000000000000000000000000000000000000000090048063022914a7146101a057806303d41e0e146102095780630e5229b01461027257806316bde382146102e85780631870db6f1461035e5780631b9cddcc146103c75780632a709b14146104425780632d320c1a146104995780632e01161a146105025780632fe8ace31461056b5780633b8157ef146105d45780633fd8cc4e1461063d5780633ff7f2d7146106a65780634a7d80b31461070f5780634e19c1121461076657806353cd3fcd146107dc57806365d8d22414610857578063681e3356146108cd57806369255678146109365780636b8802581461099f57806375e3661e14610a0857806376cdb03b14610a715780638422a2f214610ac857806387dcd2b614610b31578063883ba46614610b88578063b8ec18a814610bf1578063c5161a6014610c5a578063df6dfbb914610cb1578063ec27035014610d2c578063f30dbd2714610da2578063f9f92be414610e0b578063fbbdb68c14610e74578063fe069fb114610ecb575b600080fd5b3480156101ac57600080fd5b506101ef600480360360208110156101c357600080fd5b81019080803573ffffffffffffffffffffffffffffffffffffffff169060200190929190505050610f41565b604051808215151515815260200191505060405180910390f35b34801561021557600080fd5b506102586004803603602081101561022c57600080fd5b81019080803573ffffffffffffffffffffffffffffffffffffffff169060200190929190505050610f61565b604051808215151515815260200191505060405180910390f35b34801561027e57600080fd5b506102ce6004803603604081101561029557600080fd5b81019080803573ffffffffffffffffffffffffffffffffffffffff169060200190929190803560ff169060200190929190505050610f81565b604051808215151515815260200191505060405180910390f35b3480156102f457600080fd5b506103446004803603604081101561030b57600080fd5b81019080803573ffffffffffffffffffffffffffffffffffffffff169060200190929190803560ff16906020019092919050505061125d565b604051808215151515815260200191505060405180910390f35b34801561036a57600080fd5b506103ad6004803603602081101561038157600080fd5b81019080803573ffffffffffffffffffffffffffffffffffffffff1690602001909291905050506114eb565b604051808215151515815260200191505060405180910390f35b3480156103d357600080fd5b50610400600480360360208110156103ea57600080fd5b81019080803590602001909291905050506116b5565b604051808273ffffffffffffffffffffffffffffffffffffffff1673ffffffffffffffffffffffffffffffffffffffff16815260200191505060405180910390f35b34801561044e57600080fd5b506104576116ea565b604051808273ffffffffffffffffffffffffffffffffffffffff1673ffffffffffffffffffffffffffffffffffffffff16815260200191505060405180910390f35b3480156104a557600080fd5b506104e8600480360360208110156104bc57600080fd5b81019080803573ffffffffffffffffffffffffffffffffffffffff169060200190929190505050611710565b604051808215151515815260200191505060405180910390f35b34801561050e57600080fd5b506105516004803603602081101561052557600080fd5b81019080803573ffffffffffffffffffffffffffffffffffffffff1690602001909291905050506118c1565b604051808215151515815260200191505060405180910390f35b34801561057757600080fd5b506105ba6004803603602081101561058e57600080fd5b81019080803573ffffffffffffffffffffffffffffffffffffffff1690602001909291905050506118e0565b604051808215151515815260200191505060405180910390f35b3480156105e057600080fd5b50610623600480360360208110156105f757600080fd5b81019080803573ffffffffffffffffffffffffffffffffffffffff169060200190929190505050611a91565b604051808215151515815260200191505060405180910390f35b34801561064957600080fd5b5061068c6004803603602081101561066057600080fd5b81019080803573ffffffffffffffffffffffffffffffffffffffff169060200190929190505050611cab565b604051808215151515815260200191505060405180910390f35b3480156106b257600080fd5b506106f5600480360360208110156106c957600080fd5b81019080803573ffffffffffffffffffffffffffffffffffffffff169060200190929190505050611d02565b604051808215151515815260200191505060405180910390f35b34801561071b57600080fd5b50610724611eb3565b604051808273ffffffffffffffffffffffffffffffffffffffff1673ffffffffffffffffffffffffffffffffffffffff16815260200191505060405180910390f35b34801561077257600080fd5b506107c26004803603604081101561078957600080fd5b81019080803573ffffffffffffffffffffffffffffffffffffffff169060200190929190803560ff169060200190929190505050611ed9565b604051808215151515815260200191505060405180910390f35b3480156107e857600080fd5b50610815600480360360208110156107ff57600080fd5b8101908080359060200190929190505050612156565b604051808273ffffffffffffffffffffffffffffffffffffffff1673ffffffffffffffffffffffffffffffffffffffff16815260200191505060405180910390f35b34801561086357600080fd5b506108b36004803603604081101561087a57600080fd5b81019080803573ffffffffffffffffffffffffffffffffffffffff169060200190929190803560ff16906020019092919050505061218b565b604051808215151515815260200191505060405180910390f35b3480156108d957600080fd5b5061091c600480360360208110156108f057600080fd5b81019080803573ffffffffffffffffffffffffffffffffffffffff169060200190929190505050612478565b604051808215151515815260200191505060405180910390f35b34801561094257600080fd5b506109856004803603602081101561095957600080fd5b81019080803573ffffffffffffffffffffffffffffffffffffffff169060200190929190505050612629565b604051808215151515815260200191505060405180910390f35b3480156109ab57600080fd5b506109ee600480360360208110156109c257600080fd5b81019080803573ffffffffffffffffffffffffffffffffffffffff169060200190929190505050612844565b604051808215151515815260200191505060405180910390f35b348015610a1457600080fd5b50610a5760048036036020811015610a2b57600080fd5b81019080803573ffffffffffffffffffffffffffffffffffffffff169060200190929190505050612a0e565b604051808215151515815260200191505060405180910390f35b348015610a7d57600080fd5b50610a86612c1c565b604051808273ffffffffffffffffffffffffffffffffffffffff1673ffffffffffffffffffffffffffffffffffffffff16815260200191505060405180910390f35b348015610ad457600080fd5b50610b1760048036036020811015610aeb57600080fd5b81019080803573ffffffffffffffffffffffffffffffffffffffff169060200190929190505050612c42565b604051808215151515815260200191505060405180910390f35b348015610b3d57600080fd5b50610b46612c62565b604051808273ffffffffffffffffffffffffffffffffffffffff1673ffffffffffffffffffffffffffffffffffffffff16815260200191505060405180910390f35b348015610b9457600080fd5b50610bd760048036036020811015610bab57600080fd5b81019080803573ffffffffffffffffffffffffffffffffffffffff169060200190929190505050612c88565b604051808215151515815260200191505060405180910390f35b348015610bfd57600080fd5b50610c4060048036036020811015610c1457600080fd5b81019080803573ffffffffffffffffffffffffffffffffffffffff169060200190929190505050612e37565b604051808215151515815260200191505060405180910390f35b348015610c6657600080fd5b50610c6f612e57565b604051808273ffffffffffffffffffffffffffffffffffffffff1673ffffffffffffffffffffffffffffffffffffffff16815260200191505060405180910390f35b348015610cbd57600080fd5b50610cea60048036036020811015610cd457600080fd5b8101908080359060200190929190505050612e7d565b604051808273ffffffffffffffffffffffffffffffffffffffff1673ffffffffffffffffffffffffffffffffffffffff16815260200191505060405180910390f35b348015610d3857600080fd5b50610d8860048036036040811015610d4f57600080fd5b81019080803573ffffffffffffffffffffffffffffffffffffffff169060200190929190803560ff169060200190929190505050612eb2565b604051808215151515815260200191505060405180910390f35b348015610dae57600080fd5b50610df160048036036020811015610dc557600080fd5b81019080803573ffffffffffffffffffffffffffffffffffffffff16906020019092919050505061318e565b604051808215151515815260200191505060405180910390f35b348015610e1757600080fd5b50610e5a60048036036020811015610e2e57600080fd5b81019080803573ffffffffffffffffffffffffffffffffffffffff169060200190929190505050613340565b604051808215151515815260200191505060405180910390f35b348015610e8057600080fd5b50610e8961354b565b604051808273ffffffffffffffffffffffffffffffffffffffff1673ffffffffffffffffffffffffffffffffffffffff16815260200191505060405180910390f35b348015610ed757600080fd5b50610f2760048036036040811015610eee57600080fd5b81019080803573ffffffffffffffffffffffffffffffffffffffff169060200190929190803560ff169060200190929190505050613570565b604051808215151515815260200191505060405180910390f35b601e6020528060005260406000206000915054906101000a900460ff1681565b601d6020528060005260406000206000915054906101000a900460ff1681565b60003373ffffffffffffffffffffffffffffffffffffffff16600160009054906101000a900473ffffffffffffffffffffffffffffffffffffffff1673ffffffffffffffffffffffffffffffffffffffff16141515611048576040517f08c379a00000000000000000000000000000000000000000000000000000000081526004018080602001828103825260168152602001807f5b6d64665d6973206e6f742053757065724f776e65720000000000000000000081525060200191505060405180910390fd5b600f60ff168260ff1610151561105d57600080fd5b600073ffffffffffffffffffffffffffffffffffffffff168373ffffffffffffffffffffffffffffffffffffffff161415151561109957600080fd5b600073ffffffffffffffffffffffffffffffffffffffff16600c8360ff16600f811015156110c357fe5b0160009054906101000a900473ffffffffffffffffffffffffffffffffffffffff1673ffffffffffffffffffffffffffffffffffffffff1614151561110757600080fd5b60001515601e60008573ffffffffffffffffffffffffffffffffffffffff1673ffffffffffffffffffffffffffffffffffffffff16815260200190815260200160002060009054906101000a900460ff16151514151561116657600080fd5b6001601e60008573ffffffffffffffffffffffffffffffffffffffff1673ffffffffffffffffffffffffffffffffffffffff16815260200190815260200160002060006101000a81548160ff02191690831515021790555082600c8360ff16600f811015156111d157fe5b0160006101000a81548173ffffffffffffffffffffffffffffffffffffffff021916908373ffffffffffffffffffffffffffffffffffffffff1602179055508273ffffffffffffffffffffffffffffffffffffffff167f9465fa0c962cc76958e6373a993326400c1c94f8be2fe3a952adfa7f60b2ea2660405160405180910390a26001905092915050565b60003373ffffffffffffffffffffffffffffffffffffffff16600160009054906101000a900473ffffffffffffffffffffffffffffffffffffffff1673ffffffffffffffffffffffffffffffffffffffff16141515611324576040517f08c379a00000000000000000000000000000000000000000000000000000000081526004018080602001828103825260168152602001807f5b6d64665d6973206e6f742053757065724f776e65720000000000000000000081525060200191505060405180910390fd5b600360ff168260ff1610151561133957600080fd5b600073ffffffffffffffffffffffffffffffffffffffff168373ffffffffffffffffffffffffffffffffffffffff161415151561137557600080fd5b8273ffffffffffffffffffffffffffffffffffffffff1660068360ff1660038110151561139e57fe5b0160009054906101000a900473ffffffffffffffffffffffffffffffffffffffff1673ffffffffffffffffffffffffffffffffffffffff161415156113e257600080fd5b6000601b60008573ffffffffffffffffffffffffffffffffffffffff1673ffffffffffffffffffffffffffffffffffffffff16815260200190815260200160002060006101000a81548160ff021916908315150217905550600060068360ff1660038110151561144e57fe5b0160006101000a81548173ffffffffffffffffffffffffffffffffffffffff021916908373ffffffffffffffffffffffffffffffffffffffff1602179055508273ffffffffffffffffffffffffffffffffffffffff167fe5cf3dc480ba1c4827cecadd49be26e6e198b33c2ea33f05fb1782e01113f6ee83604051808260ff1660ff16815260200191505060405180910390a26001905092915050565b6000600360009054906101000a900473ffffffffffffffffffffffffffffffffffffffff1673ffffffffffffffffffffffffffffffffffffffff163373ffffffffffffffffffffffffffffffffffffffff161415156115b2576040517f08c379a00000000000000000000000000000000000000000000000000000000081526004018080602001828103825260188152602001807f5b6d64665d6973206e6f7420746f6b656e4d616e61676572000000000000000081525060200191505060405180910390fd5b60011515601c60008473ffffffffffffffffffffffffffffffffffffffff1673ffffffffffffffffffffffffffffffffffffffff16815260200190815260200160002060009054906101000a900460ff16151514151561161157600080fd5b6000601c60008473ffffffffffffffffffffffffffffffffffffffff1673ffffffffffffffffffffffffffffffffffffffff16815260200190815260200160002060006101000a81548160ff0219169083151502179055508173ffffffffffffffffffffffffffffffffffffffff167fc01942a7ec3d9c3d22e511759a3e46a30a0fd5e790aaa310d31a8affe212667060405160405180910390a260019050919050565b6009816003811015156116c457fe5b016000915054906101000a900473ffffffffffffffffffffffffffffffffffffffff1681565b600360009054906101000a900473ffffffffffffffffffffffffffffffffffffffff1681565b60003373ffffffffffffffffffffffffffffffffffffffff16600160009054906101000a900473ffffffffffffffffffffffffffffffffffffffff1673ffffffffffffffffffffffffffffffffffffffff161415156117d7576040517f08c379a00000000000000000000000000000000000000000000000000000000081526004018080602001828103825260168152602001807f5b6d64665d6973206e6f742053757065724f776e65720000000000000000000081525060200191505060405180910390fd5b8173ffffffffffffffffffffffffffffffffffffffff16600360009054906101000a900473ffffffffffffffffffffffffffffffffffffffff1673ffffffffffffffffffffffffffffffffffffffff161415151561183457600080fd5b81600360006101000a81548173ffffffffffffffffffffffffffffffffffffffff021916908373ffffffffffffffffffffffffffffffffffffffff1602179055508173ffffffffffffffffffffffffffffffffffffffff167fa4096bd981a9cf88955e13205ac2dc49a0a6bc2bcb59f19399c87952482266fd60405160405180910390a260019050919050565b602080528060005260406000206000915054906101000a900460ff1681565b60003373ffffffffffffffffffffffffffffffffffffffff166000809054906101000a900473ffffffffffffffffffffffffffffffffffffffff1673ffffffffffffffffffffffffffffffffffffffff161415156119a6576040517f08c379a00000000000000000000000000000000000000000000000000000000081526004018080602001828103825260178152602001807f5b6d64665d6973206e6f742048696464656e4f776e657200000000000000000081525060200191505060405180910390fd5b600073ffffffffffffffffffffffffffffffffffffffff168273ffffffffffffffffffffffffffffffffffffffff16141515156119e257600080fd5b81600160006101000a81548173ffffffffffffffffffffffffffffffffffffffff021916908373ffffffffffffffffffffffffffffffffffffffff160217905550600160009054906101000a900473ffffffffffffffffffffffffffffffffffffffff1673ffffffffffffffffffffffffffffffffffffffff167f94b17f1a4844062cbed00809347b0f8149fc88c5a3ea720c7aed42c559eed46d60405160405180910390a260019050919050565b6000601e60003373ffffffffffffffffffffffffffffffffffffffff1673ffffffffffffffffffffffffffffffffffffffff16815260200190815260200160002060009054906101000a900460ff161515611b54576040517f08c379a00000000000000000000000000000000000000000000000000000000081526004018080602001828103825260118152602001807f5b6d64665d6973206e6f74204f776e657200000000000000000000000000000081525060200191505060405180910390fd5b602060008373ffffffffffffffffffffffffffffffffffffffff1673ffffffffffffffffffffffffffffffffffffffff16815260200190815260200160002060009054906101000a900460ff161515611bac57600080fd5b6000602060008473ffffffffffffffffffffffffffffffffffffffff1673ffffffffffffffffffffffffffffffffffffffff16815260200190815260200160002060006101000a81548160ff0219169083151502179055508173ffffffffffffffffffffffffffffffffffffffff167fb24e6647db2742a3439d0a374e892f89a5a8f4619d2f5c5ed911d39a2516a47c6000604051808215151515815260200191505060405180910390a2602060008373ffffffffffffffffffffffffffffffffffffffff1673ffffffffffffffffffffffffffffffffffffffff16815260200190815260200160002060009054906101000a900460ff169050919050565b6000601f60008373ffffffffffffffffffffffffffffffffffffffff1673ffffffffffffffffffffffffffffffffffffffff16815260200190815260200160002060009054906101000a900460ff16159050919050565b60003373ffffffffffffffffffffffffffffffffffffffff16600160009054906101000a900473ffffffffffffffffffffffffffffffffffffffff1673ffffffffffffffffffffffffffffffffffffffff16141515611dc9576040517f08c379a00000000000000000000000000000000000000000000000000000000081526004018080602001828103825260168152602001807f5b6d64665d6973206e6f742053757065724f776e65720000000000000000000081525060200191505060405180910390fd5b8173ffffffffffffffffffffffffffffffffffffffff16600460009054906101000a900473ffffffffffffffffffffffffffffffffffffffff1673ffffffffffffffffffffffffffffffffffffffff1614151515611e2657600080fd5b81600460006101000a81548173ffffffffffffffffffffffffffffffffffffffff021916908373ffffffffffffffffffffffffffffffffffffffff1602179055508173ffffffffffffffffffffffffffffffffffffffff167f0379a2102e7ca040ed208e8d6d03afc1cc22075b657aa17a984de0c2f1ad898160405160405180910390a260019050919050565b600460009054906101000a900473ffffffffffffffffffffffffffffffffffffffff1681565b60003373ffffffffffffffffffffffffffffffffffffffff16600160009054906101000a900473ffffffffffffffffffffffffffffffffffffffff1673ffffffffffffffffffffffffffffffffffffffff16141515611fa0576040517f08c379a00000000000000000000000000000000000000000000000000000000081526004018080602001828103825260168152602001807f5b6d64665d6973206e6f742053757065724f776e65720000000000000000000081525060200191505060405180910390fd5b600f60ff168260ff16101515611fb557600080fd5b600073ffffffffffffffffffffffffffffffffffffffff168373ffffffffffffffffffffffffffffffffffffffff1614151515611ff157600080fd5b8273ffffffffffffffffffffffffffffffffffffffff16600c8360ff16600f8110151561201a57fe5b0160009054906101000a900473ffffffffffffffffffffffffffffffffffffffff1673ffffffffffffffffffffffffffffffffffffffff1614151561205e57600080fd5b6000601e60008573ffffffffffffffffffffffffffffffffffffffff1673ffffffffffffffffffffffffffffffffffffffff16815260200190815260200160002060006101000a81548160ff0219169083151502179055506000600c8360ff16600f811015156120ca57fe5b0160006101000a81548173ffffffffffffffffffffffffffffffffffffffff021916908373ffffffffffffffffffffffffffffffffffffffff1602179055508273ffffffffffffffffffffffffffffffffffffffff167f1e64d9a491033a9731fa82493f0ab60e9f74294eca27edd93629f1fbaa15d28760405160405180910390a26001905092915050565b60068160038110151561216557fe5b016000915054906101000a900473ffffffffffffffffffffffffffffffffffffffff1681565b60003373ffffffffffffffffffffffffffffffffffffffff16600160009054906101000a900473ffffffffffffffffffffffffffffffffffffffff1673ffffffffffffffffffffffffffffffffffffffff16141515612252576040517f08c379a00000000000000000000000000000000000000000000000000000000081526004018080602001828103825260168152602001807f5b6d64665d6973206e6f742053757065724f776e65720000000000000000000081525060200191505060405180910390fd5b600360ff168260ff1610151561226757600080fd5b600073ffffffffffffffffffffffffffffffffffffffff168373ffffffffffffffffffffffffffffffffffffffff16141515156122a357600080fd5b600073ffffffffffffffffffffffffffffffffffffffff1660068360ff166003811015156122cd57fe5b0160009054906101000a900473ffffffffffffffffffffffffffffffffffffffff1673ffffffffffffffffffffffffffffffffffffffff1614151561231157600080fd5b60001515601b60008573ffffffffffffffffffffffffffffffffffffffff1673ffffffffffffffffffffffffffffffffffffffff16815260200190815260200160002060009054906101000a900460ff16151514151561237057600080fd5b6001601b60008573ffffffffffffffffffffffffffffffffffffffff1673ffffffffffffffffffffffffffffffffffffffff16815260200190815260200160002060006101000a81548160ff0219169083151502179055508260068360ff166003811015156123db57fe5b0160006101000a81548173ffffffffffffffffffffffffffffffffffffffff021916908373ffffffffffffffffffffffffffffffffffffffff1602179055508273ffffffffffffffffffffffffffffffffffffffff167fc0b35637b759e3e6eac95537026e7bc5e3541abe824e72ce8f124830f08f4cc883604051808260ff1660ff16815260200191505060405180910390a26001905092915050565b60003373ffffffffffffffffffffffffffffffffffffffff16600160009054906101000a900473ffffffffffffffffffffffffffffffffffffffff1673ffffffffffffffffffffffffffffffffffffffff1614151561253f576040517f08c379a00000000000000000000000000000000000000000000000000000000081526004018080602001828103825260168152602001807f5b6d64665d6973206e6f742053757065724f776e65720000000000000000000081525060200191505060405180910390fd5b8173ffffffffffffffffffffffffffffffffffffffff16600560009054906101000a900473ffffffffffffffffffffffffffffffffffffffff1673ffffffffffffffffffffffffffffffffffffffff161415151561259c57600080fd5b81600560006101000a81548173ffffffffffffffffffffffffffffffffffffffff021916908373ffffffffffffffffffffffffffffffffffffffff1602179055508173ffffffffffffffffffffffffffffffffffffffff167fd8149b70ddad9bbd6b30f54a45a56b25605c1f070d7886906df230183b791ae360405160405180910390a260019050919050565b6000601e60003373ffffffffffffffffffffffffffffffffffffffff1673ffffffffffffffffffffffffffffffffffffffff16815260200190815260200160002060009054906101000a900460ff1615156126ec576040517f08c379a00000000000000000000000000000000000000000000000000000000081526004018080602001828103825260118152602001807f5b6d64665d6973206e6f74204f776e657200000000000000000000000000000081525060200191505060405180910390fd5b602060008373ffffffffffffffffffffffffffffffffffffffff1673ffffffffffffffffffffffffffffffffffffffff16815260200190815260200160002060009054906101000a900460ff1615151561274557600080fd5b6001602060008473ffffffffffffffffffffffffffffffffffffffff1673ffffffffffffffffffffffffffffffffffffffff16815260200190815260200160002060006101000a81548160ff0219169083151502179055508173ffffffffffffffffffffffffffffffffffffffff167fb24e6647db2742a3439d0a374e892f89a5a8f4619d2f5c5ed911d39a2516a47c6001604051808215151515815260200191505060405180910390a2602060008373ffffffffffffffffffffffffffffffffffffffff1673ffffffffffffffffffffffffffffffffffffffff16815260200190815260200160002060009054906101000a900460ff169050919050565b6000600360009054906101000a900473ffffffffffffffffffffffffffffffffffffffff1673ffffffffffffffffffffffffffffffffffffffff163373ffffffffffffffffffffffffffffffffffffffff1614151561290b576040517f08c379a00000000000000000000000000000000000000000000000000000000081526004018080602001828103825260188152602001807f5b6d64665d6973206e6f7420746f6b656e4d616e61676572000000000000000081525060200191505060405180910390fd5b60001515601c60008473ffffffffffffffffffffffffffffffffffffffff1673ffffffffffffffffffffffffffffffffffffffff16815260200190815260200160002060009054906101000a900460ff16151514151561296a57600080fd5b6001601c60008473ffffffffffffffffffffffffffffffffffffffff1673ffffffffffffffffffffffffffffffffffffffff16815260200190815260200160002060006101000a81548160ff0219169083151502179055508173ffffffffffffffffffffffffffffffffffffffff167f7c4977f0d6d82a995aca6d8a362fe97ea99ed30b6c01735e6e542acff7bd999360405160405180910390a260019050919050565b60003373ffffffffffffffffffffffffffffffffffffffff16600160009054906101000a900473ffffffffffffffffffffffffffffffffffffffff1673ffffffffffffffffffffffffffffffffffffffff16141515612ad5576040517f08c379a00000000000000000000000000000000000000000000000000000000081526004018080602001828103825260168152602001807f5b6d64665d6973206e6f742053757065724f776e65720000000000000000000081525060200191505060405180910390fd5b601f60008373ffffffffffffffffffffffffffffffffffffffff1673ffffffffffffffffffffffffffffffffffffffff16815260200190815260200160002060009054906101000a900460ff161515612b2d57600080fd5b6000601f60008473ffffffffffffffffffffffffffffffffffffffff1673ffffffffffffffffffffffffffffffffffffffff16815260200190815260200160002060006101000a81548160ff0219169083151502179055508173ffffffffffffffffffffffffffffffffffffffff167faab7954e9d246b167ef88aeddad35209ca2489d95a8aeb59e288d9b19fae5a5460405160405180910390a2601f60008373ffffffffffffffffffffffffffffffffffffffff1673ffffffffffffffffffffffffffffffffffffffff16815260200190815260200160002060009054906101000a900460ff169050919050565b600560009054906101000a900473ffffffffffffffffffffffffffffffffffffffff1681565b601b6020528060005260406000206000915054906101000a900460ff1681565b600160009054906101000a900473ffffffffffffffffffffffffffffffffffffffff1681565b60003373ffffffffffffffffffffffffffffffffffffffff166000809054906101000a900473ffffffffffffffffffffffffffffffffffffffff1673ffffffffffffffffffffffffffffffffffffffff16141515612d4e576040517f08c379a00000000000000000000000000000000000000000000000000000000081526004018080602001828103825260178152602001807f5b6d64665d6973206e6f742048696464656e4f776e657200000000000000000081525060200191505060405180910390fd5b600073ffffffffffffffffffffffffffffffffffffffff168273ffffffffffffffffffffffffffffffffffffffff1614151515612d8a57600080fd5b816000806101000a81548173ffffffffffffffffffffffffffffffffffffffff021916908373ffffffffffffffffffffffffffffffffffffffff1602179055506000809054906101000a900473ffffffffffffffffffffffffffffffffffffffff1673ffffffffffffffffffffffffffffffffffffffff167fed12844517c22c2de717b33333c74477d9e6a0d043db15e209949bc283f2dd5960405160405180910390a260019050919050565b601c6020528060005260406000206000915054906101000a900460ff1681565b600260009054906101000a900473ffffffffffffffffffffffffffffffffffffffff1681565b600c81600f81101515612e8c57fe5b016000915054906101000a900473ffffffffffffffffffffffffffffffffffffffff1681565b60003373ffffffffffffffffffffffffffffffffffffffff16600160009054906101000a900473ffffffffffffffffffffffffffffffffffffffff1673ffffffffffffffffffffffffffffffffffffffff16141515612f79576040517f08c379a00000000000000000000000000000000000000000000000000000000081526004018080602001828103825260168152602001807f5b6d64665d6973206e6f742053757065724f776e65720000000000000000000081525060200191505060405180910390fd5b600360ff168260ff16101515612f8e57600080fd5b600073ffffffffffffffffffffffffffffffffffffffff168373ffffffffffffffffffffffffffffffffffffffff1614151515612fca57600080fd5b600073ffffffffffffffffffffffffffffffffffffffff1660098360ff16600381101515612ff457fe5b0160009054906101000a900473ffffffffffffffffffffffffffffffffffffffff1673ffffffffffffffffffffffffffffffffffffffff1614151561303857600080fd5b60001515601d60008573ffffffffffffffffffffffffffffffffffffffff1673ffffffffffffffffffffffffffffffffffffffff16815260200190815260200160002060009054906101000a900460ff16151514151561309757600080fd5b6001601d60008573ffffffffffffffffffffffffffffffffffffffff1673ffffffffffffffffffffffffffffffffffffffff16815260200190815260200160002060006101000a81548160ff0219169083151502179055508260098360ff1660038110151561310257fe5b0160006101000a81548173ffffffffffffffffffffffffffffffffffffffff021916908373ffffffffffffffffffffffffffffffffffffffff1602179055508273ffffffffffffffffffffffffffffffffffffffff167fb2bea1aacb52292e22554458b37393c5c9afbdc4bb5edddf26805d0ad791005a60405160405180910390a26001905092915050565b60003373ffffffffffffffffffffffffffffffffffffffff16600160009054906101000a900473ffffffffffffffffffffffffffffffffffffffff1673ffffffffffffffffffffffffffffffffffffffff16141515613255576040517f08c379a00000000000000000000000000000000000000000000000000000000081526004018080602001828103825260168152602001807f5b6d64665d6973206e6f742053757065724f776e65720000000000000000000081525060200191505060405180910390fd5b600073ffffffffffffffffffffffffffffffffffffffff168273ffffffffffffffffffffffffffffffffffffffff161415151561329157600080fd5b81600260006101000a81548173ffffffffffffffffffffffffffffffffffffffff021916908373ffffffffffffffffffffffffffffffffffffffff160217905550600260009054906101000a900473ffffffffffffffffffffffffffffffffffffffff1673ffffffffffffffffffffffffffffffffffffffff167f746e4dbb4fcada0af54a5df33c0f46859c5ae98432a8e0b81213037872227a2d60405160405180910390a260019050919050565b6000601e60003373ffffffffffffffffffffffffffffffffffffffff1673ffffffffffffffffffffffffffffffffffffffff16815260200190815260200160002060009054906101000a900460ff161515613403576040517f08c379a00000000000000000000000000000000000000000000000000000000081526004018080602001828103825260118152602001807f5b6d64665d6973206e6f74204f776e657200000000000000000000000000000081525060200191505060405180910390fd5b601f60008373ffffffffffffffffffffffffffffffffffffffff1673ffffffffffffffffffffffffffffffffffffffff16815260200190815260200160002060009054906101000a900460ff1615151561345c57600080fd5b6001601f60008473ffffffffffffffffffffffffffffffffffffffff1673ffffffffffffffffffffffffffffffffffffffff16815260200190815260200160002060006101000a81548160ff0219169083151502179055508173ffffffffffffffffffffffffffffffffffffffff167fffa4e6181777692565cf28528fc88fd1516ea86b56da075235fa575af6a4b85560405160405180910390a2601f60008373ffffffffffffffffffffffffffffffffffffffff1673ffffffffffffffffffffffffffffffffffffffff16815260200190815260200160002060009054906101000a900460ff169050919050565b6000809054906101000a900473ffffffffffffffffffffffffffffffffffffffff1681565b60003373ffffffffffffffffffffffffffffffffffffffff16600160009054906101000a900473ffffffffffffffffffffffffffffffffffffffff1673ffffffffffffffffffffffffffffffffffffffff16141515613637576040517f08c379a00000000000000000000000000000000000000000000000000000000081526004018080602001828103825260168152602001807f5b6d64665d6973206e6f742053757065724f776e65720000000000000000000081525060200191505060405180910390fd5b600360ff168260ff1610151561364c57600080fd5b600073ffffffffffffffffffffffffffffffffffffffff168373ffffffffffffffffffffffffffffffffffffffff161415151561368857600080fd5b8273ffffffffffffffffffffffffffffffffffffffff1660098360ff166003811015156136b157fe5b0160009054906101000a900473ffffffffffffffffffffffffffffffffffffffff1673ffffffffffffffffffffffffffffffffffffffff161415156136f557600080fd5b6000601d60008573ffffffffffffffffffffffffffffffffffffffff1673ffffffffffffffffffffffffffffffffffffffff16815260200190815260200160002060006101000a81548160ff021916908315150217905550600060098360ff1660038110151561376157fe5b0160006101000a81548173ffffffffffffffffffffffffffffffffffffffff021916908373ffffffffffffffffffffffffffffffffffffffff1602179055508273ffffffffffffffffffffffffffffffffffffffff167f560f25f18d7de8bf147a02a300cdcfd8c47e2ca258b2ead7d9e331f29ee488d960405160405180910390a2600190509291505056fea165627a7a723058205d229eaf02d1149ccb4732f75243f50cf1df0e53ca04a662d47db9d71e49490d0029",
  "source": "/**\n *Submitted for verification at Etherscan.io on 2019-01-31\n*/\npragma solidity >0.4.99 <0.6.0;\n\ncontract Context {\n  function _msgSender() internal view returns (address) {\n        return msg.sender;\n    }\n}\n\ncontract ERC20Basic {\n    function totalSupply() public view returns (uint256);\n    function balanceOf(address who) public view returns (uint256);\n    function transfer(address to, uint256 value) public returns (bool);\n    event Transfer(address indexed from, address indexed to, uint256 value);\n}\n/**\n * @title ERC20 interface\n * @dev see https://github.com/ethereum/EIPs/issues/20\n */\ncontract ERC20 is ERC20Basic {\n    function allowance(address owner, address spender)\n        public view returns (uint256);\n\n    function transferFrom(address from, address to, uint256 value)\n        public returns (bool);\n\n    function approve(address spender, uint256 value) public returns (bool);\n    \n    event Approval(\n        address indexed owner,\n        address indexed spender,\n        uint256 value\n    );\n}\n\nlibrary SafeERC20 {\n    function safeTransfer(\n        ERC20Basic _token,\n        address _to,\n        uint256 _value\n    ) internal\n    {\n        require(_token.transfer(_to, _value));\n    }\n\n    function safeTransferFrom(\n        ERC20 _token,\n        address _from,\n        address _to,\n        uint256 _value\n    ) internal\n    {\n        require(_token.transferFrom(_from, _to, _value));\n    }\n\n    function safeApprove(\n        ERC20 _token,\n        address _spender,\n        uint256 _value\n    ) internal\n    {\n        require(_token.approve(_spender, _value));\n    }\n}\n\nlibrary SafeMath {\n\t/**\n    * @dev Multiplies two numbers, throws on overflow.\n    */\n    function mul(uint256 a, uint256 b) internal pure returns (uint256 c) {\n\t\t// Gas optimization: this is cheaper than asserting 'a' not being zero, but the\n\t\t// benefit is lost if 'b' is also tested.\n\t\t// See: https://github.com/OpenZeppelin/openzeppelin-solidity/pull/522\n        if(a == 0) {\n            return 0;\n\t\t}\n        c = a * b;\n        assert(c / a == b);\n        return c;\n    }\n\n\t/**\n\t* @dev Integer division of two numbers, truncating the quotient.\n\t*/\n    function div(uint256 a, uint256 b) internal pure returns (uint256) {\n\t\t// assert(b > 0); // Solidity automatically throws when dividing by 0\n\t\t// uint256 c = a / b;\n\t\t// assert(a == b * c + a % b); // There is no case in which this doesn't hold\n        return a / b;\n    }\n\n\t/**\n\t* @dev Subtracts two numbers, throws on overflow (i.e. if subtrahend is greater than minuend).\n\t*/\n    function sub(uint256 a, uint256 b) internal pure returns (uint256) {\n        assert(b <= a);\n        return a - b;\n    }\n\t/**\n    * @dev Adds two numbers, throws on overflow.\n    */\n    function add(uint256 a, uint256 b) internal pure returns (uint256 c) {\n        c = a + b;\n        assert(c >= a);\n        return c;\n    }\n}\n\n\n\n/**\n * @title Basic token\n * @dev Basic version of StandardToken, with no allowances.\n */\ncontract BasicToken is ERC20Basic, Context {\n    using SafeMath for uint256;\n    \n    mapping(address => uint256) balances;\n    \n    uint256 totalSupply_;\n\n    /**\n    * @dev Total number of tokens in existence\n    */\n    function totalSupply() public view returns (uint256) {\n        return totalSupply_;\n    }\n    /**\n    * @dev Transfer token for a specified address\n    * @param _to The address to transfer to.\n    * @param _value The amount to be transferred.\n    */\n    function transfer(address _to, uint256 _value) public returns (bool) {\n        require(_to != address(0),\"[transfer]is not valid address\");\n        require(_value <= balances[_msgSender()], \"[transfer]value is too much\");\n        balances[_msgSender()] = balances[_msgSender()].sub(_value);\n        balances[_to] = balances[_to].add(_value);\n        \n        emit Transfer(msg.sender, _to, _value);\n        \n        return true;\n    }\n\n\t/**\n    * @dev Gets the balance of the specified address.\n    * @param _owner The address to query the the balance of.\n    * @return An uint256 representing the amount owned by the passed address.\n    */\n    function balanceOf(address _owner) public view returns (uint256) {\n        return balances[_owner];\n    }\n}\n\n\n/**\n * @title Standard ERC20 token\n *\n * @dev Implementation of the basic standard token.\n * https://github.com/ethereum/EIPs/issues/20\n * Based on code by FirstBlood: https://github.com/Firstbloodio/token/blob/master/smart_contract/FirstBloodToken.sol\n */\ncontract StandardToken is ERC20, BasicToken {\n\n    mapping (address => mapping (address => uint256)) internal allowed;\n\n\n    /**\n    * @dev Transfer tokens from one address to another\n    * @param _from address The address which you want to send tokens from\n    * @param _to address The address which you want to transfer to\n    * @param _value uint256 the amount of tokens to be transferred\n    */\n    function transferFrom (\n        address _from,\n        address _to,\n        uint256 _value\n    ) public returns (bool)\n    {\n        require(_to != address(0));\n        require(_value <= balances[_from]);\n        require(_value <= allowed[_from][_msgSender()]);\n        balances[_from] = balances[_from].sub(_value);\n        balances[_to] = balances[_to].add(_value);\n        allowed[_from][_msgSender()] = allowed[_from][_msgSender()].sub(_value);\n        \n        emit Transfer(_from, _to, _value);\n        \n        return true;\n    }\n\n    /**\n    * @dev Approve the passed address to spend the specified amount of tokens on behalf of msg.sender.\n    * Beware that changing an allowance with this method brings the risk that someone may use both the old\n    * and the new allowance by unfortunate transaction ordering. One possible solution to mitigate this\n    * race condition is to first reduce the spender's allowance to 0 and set the desired value afterwards:\n    * https://github.com/ethereum/EIPs/issues/20#issuecomment-263524729\n    * @param _spender The address which will spend the funds.\n    * @param _value The amount of tokens to be spent.\n    */\n    function approve(address _spender, uint256 _value) public returns (bool) {\n        allowed[_msgSender()][_spender] = _value;\n        \n        emit Approval(_msgSender(), _spender, _value);\n        \n        return true;\n    }\n\n    /**\n    * @dev Function to check the amount of tokens that an owner allowed to a spender.\n    * @param _owner address The address which owns the funds.\n    * @param _spender address The address which will spend the funds.\n    * @return A uint256 specifying the amount of tokens still available for the spender.\n    */\n    function allowance (\n        address _owner,\n        address _spender\n\t)\n\t\tpublic\n\t\tview\n\t\treturns (uint256)\n\t{\n        return allowed[_owner][_spender];\n    }\n\n\t/**\n    * @dev Increase the amount of tokens that an owner allowed to a spender.\n    * approve should be called when allowed[_spender] == 0. To increment\n    * allowed value is better to use this function to avoid 2 calls (and wait until\n    * the first transaction is mined)\n    * From MonolithDAO Token.sol\n    * @param _spender The address which will spend the funds.\n    * @param _addedValue The amount of tokens to increase the allowance by.\n    */\n    function increaseApproval(\n        address _spender,\n        uint256 _addedValue\n\t)\n\t\tpublic\n\t\treturns (bool)\n\t{\n        allowed[_msgSender()][_spender] = (\n        allowed[_msgSender()][_spender].add(_addedValue));\n        \n        emit Approval(_msgSender(), _spender, allowed[_msgSender()][_spender]);\n        \n        return true;\n    }\n\n\t/**\n    * @dev Decrease the amount of tokens that an owner allowed to a spender.\n    * approve should be called when allowed[_spender] == 0. To decrement\n    * allowed value is better to use this function to avoid 2 calls (and wait until\n    * the first transaction is mined)\n    * From MonolithDAO Token.sol\n    * @param _spender The address which will spend the funds.\n    * @param _subtractedValue The amount of tokens to decrease the allowance by.\n    */\n    function decreaseApproval(\n        address _spender,\n        uint256 _subtractedValue\n\t) public returns (bool)\n\t{\n        uint256 oldValue = allowed[_msgSender()][_spender];\n        if (_subtractedValue > oldValue) {\n            allowed[_msgSender()][_spender] = 0;\n\t\t} else {\n            allowed[_msgSender()][_spender] = oldValue.sub(_subtractedValue);\n\t\t}\n        \n        emit Approval(_msgSender(), _spender, allowed[_msgSender()][_spender]);\n        \n        return true;\n    }\n}\n\ncontract MultiOwnable {\n    uint8 constant MAX_BURN = 3;\n    uint8 constant MAX_OWNER = 15;\n    uint8 constant MAX_JUDGE = 3;\n    address payable public hiddenOwner;\n    address payable public superOwner;\n    address payable public reclaimer;\n    //  ,   \n    address payable public tokenManager;\n    address payable public withdrawalWallet;\n    address payable public bank;\n    address[MAX_JUDGE] public chkJudgeList;\n    address[MAX_BURN] public chkBurnerList;\n    address[MAX_OWNER] public chkOwnerList;\n\n    mapping(address => bool) public judges;\n    mapping(address => bool) public depositWallet;\n    mapping(address => bool) public burners;\n    mapping (address => bool) public owners;\n\n    event AddedBurner(address indexed newBurner);\n    event AddedOwner(address indexed newOwner);\n    event DeletedOwner(address indexed toDeleteOwner);\n    event DeletedBurner(address indexed toDeleteBurner);\n    event ChangedReclaimer(address indexed newReclaimer);\n    event ChangedBank(address indexed newBank);\n    event ChangedSuperOwner(address indexed newSuperOwner);\n    event ChangedHiddenOwner(address indexed newHiddenOwner);\n    event ChangedTokenManager(address indexed newTokenManager);\n    event ChangedWithdrawalWallet(address indexed newWithdrawalWallet);\n    event SetDepositWallet(address indexed _wallet);\n    event DelDepositWallet(address indexed _wallet);\n    event AddedJudge(address indexed _newJudge, uint8 _number);\n    event DeletedJudge(address indexed _newJudge, uint8 _number);\n\n    constructor() public {\n        hiddenOwner = msg.sender;\n        superOwner = msg.sender;\n        reclaimer = msg.sender;\n        owners[msg.sender] = true;\n        chkOwnerList[0] = msg.sender;\n        withdrawalWallet = msg.sender;\n    }\n\n    modifier onlySuperOwner() {\n        require(superOwner == msg.sender, \"[mdf]is not SuperOwner\");\n        _;\n    }\n\n    modifier onlyJudge(address _from) {\n        require(judges[_from] == true, \"[mdf]is not Judge\");\n        _;\n    }\n\n    modifier onlyBank() {\n        require(bank == msg.sender);\n        _;\n    }\n    modifier onlyNotBank(address _from) {\n        require(bank != _from);\n        _;\n    }\n\n    modifier onlyReclaimer() {\n        require(reclaimer == msg.sender, \"[mdf]is not Reclaimer\");\n        _;\n    }\n\n    modifier onlyHiddenOwner() {\n        require(hiddenOwner == msg.sender, \"[mdf]is not HiddenOwner\");\n        _;\n    }\n\n    modifier onlyOwner() {\n        require(owners[msg.sender], \"[mdf]is not Owner\");\n        _;\n    }\n\n    modifier onlyBurner(){\n        require(burners[msg.sender], \"[mdf]is not Burner\");\n        _;\n    }\n\n    modifier onlyDepositWallet(address _who) {\n      require(depositWallet[_who] == true, \"[mdf]is not DepositWallet\");\n      _;\n    }\n\n    modifier onlyNotDepositWallet(address _who) {\n      require(depositWallet[_who] == false, \"[mdf]is DepositWallet\");\n      _;\n    }\n\n    modifier onlyTokenManager() {\n      require(msg.sender == tokenManager, \"[mdf]is not tokenManager\");\n      _;\n    }\n\n    modifier onlyNotwWallet() {\n      require(msg.sender != withdrawalWallet, \"[mdf]is withdrawalWallet\");\n      _;\n    }\n\n    function transferWithdrawalWallet(address payable _wallet) public onlySuperOwner returns (bool) {\n        \n        require(withdrawalWallet != _wallet);\n        \n        withdrawalWallet = _wallet;\n        \n        emit ChangedWithdrawalWallet(_wallet);\n        \n        return true;\n        \n    }\n\n    function transferTokenManagerRole(address payable _newTokenManager) public onlySuperOwner returns (bool) {\n        require(tokenManager != _newTokenManager);\n\n        tokenManager = _newTokenManager;\n\n        emit ChangedTokenManager(_newTokenManager);\n\n        return true;\n    }\n\n    function transferBankOwnership(address payable _newBank) public onlySuperOwner returns (bool) {\n        \n        require(bank != _newBank);\n        \n        bank = _newBank;\n        \n        emit ChangedBank(_newBank);\n        \n        return true;\n        \n    }\n\n    function addJudge(address _newJudge, uint8 _num) public onlySuperOwner returns (bool) {\n        require(_num < MAX_JUDGE);\n        require(_newJudge != address(0));\n        require(chkJudgeList[_num] == address(0));\n        require(judges[_newJudge] == false);\n\n        judges[_newJudge] = true;\n        chkJudgeList[_num] = _newJudge;\n        \n        emit AddedJudge(_newJudge, _num);\n        \n        return true;\n    }\n\n    function deleteJudge(address _toDeleteJudge, uint8 _num) public\n    onlySuperOwner returns (bool) {\n        require(_num < MAX_JUDGE);\n        require(_toDeleteJudge != address(0));\n        require(chkJudgeList[_num] == _toDeleteJudge);\n        \n        judges[_toDeleteJudge] = false;\n\n        chkJudgeList[_num] = address(0);\n        \n        emit DeletedJudge(_toDeleteJudge, _num);\n        \n        return true;\n    }\n\n    function setDepositWallet(address _depositWallet) public\n    onlyTokenManager returns (bool) {\n        \n        require(depositWallet[_depositWallet] == false);\n        \n        depositWallet[_depositWallet] = true;\n        \n        emit SetDepositWallet(_depositWallet);\n        \n        return true;\n    }\n\n    function delDepositWallet(address _depositWallet) public\n    onlyTokenManager returns (bool) {\n        \n        require(depositWallet[_depositWallet] == true);\n        \n        depositWallet[_depositWallet] = false;\n        \n        emit DelDepositWallet(_depositWallet);\n        \n        return true;\n    }\n\n    function changeSuperOwnership(address payable newSuperOwner) public onlyHiddenOwner returns(bool) {\n        require(newSuperOwner != address(0));\n        \n        superOwner = newSuperOwner;\n        \n        emit ChangedSuperOwner(superOwner);\n        \n        return true;\n    }\n    \n    function changeHiddenOwnership(address payable newHiddenOwner) public onlyHiddenOwner returns(bool) {\n        require(newHiddenOwner != address(0));\n        \n        hiddenOwner = newHiddenOwner;\n        \n        emit ChangedHiddenOwner(hiddenOwner);\n        \n        return true;\n    }\n\n    function changeReclaimer(address payable newReclaimer) public onlySuperOwner returns(bool) {\n        require(newReclaimer != address(0));\n        reclaimer = newReclaimer;\n        \n        emit ChangedReclaimer(reclaimer);\n        \n        return true;\n    }\n\n    function addBurner(address burner, uint8 num) public onlySuperOwner returns (bool) {\n        require(num < MAX_BURN);\n        require(burner != address(0));\n        require(chkBurnerList[num] == address(0));\n        require(burners[burner] == false);\n\n        burners[burner] = true;\n        chkBurnerList[num] = burner;\n        \n        emit AddedBurner(burner);\n        \n        return true;\n    }\n\n    function deleteBurner(address burner, uint8 num) public onlySuperOwner returns (bool) {\n        require(num < MAX_BURN);\n        require(burner != address(0));\n        require(chkBurnerList[num] == burner);\n        \n        burners[burner] = false;\n\n        chkBurnerList[num] = address(0);\n        \n        emit DeletedBurner(burner);\n        \n        return true;\n    }\n\n    function addOwner(address owner, uint8 num) public onlySuperOwner returns (bool) {\n        require(num < MAX_OWNER);\n        require(owner != address(0));\n        require(chkOwnerList[num] == address(0));\n        require(owners[owner] == false);\n        \n        owners[owner] = true;\n        chkOwnerList[num] = owner;\n        \n        emit AddedOwner(owner);\n        \n        return true;\n    }\n\n    function deleteOwner(address owner, uint8 num) public onlySuperOwner returns (bool) {\n        require(num < MAX_OWNER);\n        require(owner != address(0));\n        require(chkOwnerList[num] == owner);\n\n        owners[owner] = false;\n\n        chkOwnerList[num] = address(0);\n        \n        emit DeletedOwner(owner);\n        \n        return true;\n    }\n}\n\n/**\n * @title HasNoEther\n */\ncontract HasNoEther is MultiOwnable {\n    using SafeERC20 for ERC20Basic;\n\n    event ReclaimToken(address _token);\n    \n    /**\n    * @dev Constructor that rejects incoming Ether\n    * The `payable` flag is added so we can access `msg.value` without compiler warning. If we\n    * leave out payable, then Solidity will allow inheriting contracts to implement a payable\n    * constructor. By doing it this way we prevent a payable constructor from working. Alternatively\n    * we could use assembly to access msg.value.\n    */\n    constructor() public payable {\n        require(msg.value == 0);\n    }\n    /**\n    * @dev Disallows direct send by settings a default function without the `payable` flag.\n    */\n    function() external {\n\n    }\n    \n    function reclaimToken(ERC20Basic _token) external onlyReclaimer returns(bool){\n        \n        uint256 balance = _token.balanceOf(address(this));\n\n        _token.safeTransfer(superOwner, balance);\n        \n        emit ReclaimToken(address(_token));\n    \n        return true;\n    }\n\n}\n\ncontract Blacklist is MultiOwnable {\n\n    mapping(address => bool) blacklisted;\n\n    event Blacklisted(address indexed blacklist);\n    event Whitelisted(address indexed whitelist);\n    \n    modifier whenPermitted(address node) {\n        require(!blacklisted[node]);\n        _;\n    }\n    \n    function isPermitted(address node) public view returns (bool) {\n        return !blacklisted[node];\n    }\n\n    function blacklist(address node) public onlyOwner returns (bool) {\n        require(!blacklisted[node]);\n\n        blacklisted[node] = true;\n        emit Blacklisted(node);\n\n        return blacklisted[node];\n    }\n   \n    function unblacklist(address node) public onlySuperOwner returns (bool) {\n        require(blacklisted[node]);\n\n        blacklisted[node] = false;\n        emit Whitelisted(node);\n\n        return blacklisted[node];\n    }\n}\n\ncontract Burnlist is Blacklist {\n    mapping(address => bool) public isburnlist;\n\n    event Burnlisted(address indexed burnlist, bool signal);\n\n    modifier isBurnlisted(address who) {\n        require(isburnlist[who]);\n        _;\n    }\n\n    function addBurnlist(address node) public onlyOwner returns (bool) {\n        require(!isburnlist[node]);\n        \n        isburnlist[node] = true;\n        \n        emit Burnlisted(node, true);\n        \n        return isburnlist[node];\n    }\n\n    function delBurnlist(address node) public onlyOwner returns (bool) {\n        require(isburnlist[node]);\n        \n        isburnlist[node] = false;\n        \n        emit Burnlisted(node, false);\n        \n        return isburnlist[node];\n    }\n}\n\n\ncontract PausableToken is StandardToken, HasNoEther, Burnlist {\n  \n    bool public paused = false;\n  \n    event Paused(address addr);\n    event Unpaused(address addr);\n\n    constructor() public {\n\n    }\n    \n    modifier whenNotPaused() {\n        require(!paused || owners[_msgSender()]);\n        _;\n    }\n   \n    function pause() public onlyOwner returns (bool) {\n        \n        require(!paused);\n\n        paused = true;\n        \n        emit Paused(_msgSender());\n\n        return paused;\n    }\n\n    function unpause() public onlySuperOwner returns (bool) {\n        require(paused);\n\n        paused = false;\n        \n        emit Unpaused(_msgSender());\n\n        return paused;\n    }\n}\n\n/**\n * @title ISDT\n *\n */\ncontract Isdt is PausableToken {\n    \n    event Withdrawed(address indexed _tokenManager, address indexed _withdrawedWallet, address indexed _to, uint256 _value);\n    event Burnt(address indexed burner, uint256 value);\n    event Mint(address indexed minter, uint256 value);\n    struct VotedResult {\n        bool result;\n    }\n\n    mapping(address => VotedResult) public voteBox;\n\n    string public constant name = \"ISTARDUST\";\n    uint8 public constant decimals = 18;\n    string public constant symbol = \"ISDT\";\n    uint256 public constant INITIAL_SUPPLY = 1e10 * (10 ** uint256(decimals));\n    uint256 public constant granularity = 1e18;\n\n    constructor() public {\n        totalSupply_ = INITIAL_SUPPLY;\n        balances[msg.sender] = INITIAL_SUPPLY;\n        \n        emit Transfer(address(0), msg.sender, INITIAL_SUPPLY);\n    }\n\n    function destory() public onlyHiddenOwner returns (bool) {\n        selfdestruct(superOwner);\n        return true;\n    }\n    \n    function mint(uint256 _amount) public onlyHiddenOwner returns (bool) {\n        \n        require(INITIAL_SUPPLY >= totalSupply_.add(_amount));\n        \n        totalSupply_ = totalSupply_.add(_amount);\n        \n        balances[superOwner] = balances[superOwner].add(_amount);\n\n        emit Mint(superOwner, _amount);\n        \n        emit Transfer(address(0), superOwner, _amount);\n        \n        return true;\n    }\n\n    function burn(address _to,uint256 _value) public onlyBurner isBurnlisted(_to) returns(bool) {\n\n        _burn(_to, _value);\n\n        return true;\n    }\n\n    function _burn(address _who, uint256 _value) internal returns(bool) {\n        require(_value <= balances[_who]);\n        \n\n        balances[_who] = balances[_who].sub(_value);\n        totalSupply_ = totalSupply_.sub(_value);\n    \n        emit Burnt(_who, _value);\n        emit Transfer(_who, address(0), _value);\n\n        return true;\n    }\n\n    function _vacummClean(address _from) internal\n    onlyDepositWallet(_from)\n    returns (bool) {\n      require(_from != address(0));\n\n      uint256 _fromBalance = balances[_from];\n      require(_fromBalance <= balances[_from]);\n\n      balances[_from] = balances[_from].sub(_fromBalance);\n      balances[withdrawalWallet] = balances[withdrawalWallet].add(_fromBalance);\n\n      emit Transfer(_from, withdrawalWallet, _fromBalance);\n      return true;\n    }\n    \n    function vacummClean(address[] memory _from) public onlyTokenManager\n    returns (bool) {\n      for(uint256 i = 0; i < _from.length; i++) {\n        _vacummClean(_from[i]);\n      }\n      return true;\n    }\n\n    function withdraw(address _to, uint256 _value) public\n    onlyTokenManager whenNotPaused checkGranularity(_value)\n    returns (bool) {\n    \n        require(_to != address(0));\n        require(_value <= balances[withdrawalWallet]);\n        \n        balances[withdrawalWallet] = balances[withdrawalWallet].sub(_value);\n        balances[_to] = balances[_to].add(_value);\n        \n        emit Transfer(withdrawalWallet, _to, _value);\n        \n        emit Withdrawed(_msgSender(), withdrawalWallet, _to, _value);\n        \n        return true;\n    }\n    \n    function transfer(address _to, uint256 _value) public\n    onlyNotwWallet whenNotPaused whenPermitted(_msgSender()) onlyNotBank(_msgSender())\n    onlyNotDepositWallet(_msgSender()) checkGranularity(_value)\n    returns (bool) {\n        return super.transfer(_to, _value);\n    }\n\n    modifier checkGranularity(uint256 _amount) {\n        require(_amount % granularity == 0, \"[mdf]Unable to modify token balances at this granularity\");\n        _;\n    }\n\n    function agree() public onlyJudge(_msgSender()) returns (bool) {\n        require(voteBox[_msgSender()].result == false, \"voted result already is true\");\n        voteBox[_msgSender()].result = true;\n        \n        return true;\n    }\n\n    function disagree() public onlyJudge(_msgSender()) returns (bool) {\n        require(voteBox[_msgSender()].result == true, \"voted result already is false\");\n        voteBox[_msgSender()].result = false;\n        return true;\n    }\n\n    function _voteResult() internal returns (bool) {\n        require(chkJudgeList[0] != address(0), \"judge0 is not setted\");\n        require(chkJudgeList[1] != address(0), \"judge1 is not setted\");\n        require(chkJudgeList[2] != address(0), \"judge2 is not setted\");\n        uint8 chk = 0;\n        for(uint8 i = 0; i < MAX_JUDGE; i++) {\n            if(voteBox[chkJudgeList[i]].result == true) {\n                voteBox[chkJudgeList[i]].result = false;\n                chk++;\n            }\n        }\n        if(chk >= 2) {\n            return true;\n        }\n        return false;\n    }\n\n    function transferFrom(\n        address _from,\n        address _to,\n        uint256 _value\n    )\n    public\n    whenNotPaused onlyNotwWallet whenPermitted(_from) onlyNotBank(_msgSender())\n    onlyNotDepositWallet(_from) checkGranularity(_value)\n    returns (bool)\n    {\n        return super.transferFrom(_from, _to, _value);\n    }\n\n    function depositToBank(uint256 _value) public onlySuperOwner\n    returns (bool) {\n        super.transfer(bank, _value);\n        return true;\n    }\n\n    function withdrawFromBank(uint256 _value) public onlyBank\n    returns (bool) {\n        require(_voteResult(), \"_voteResult is not valid\");\n        super.transfer(superOwner, _value);\n        return true;\n    }\n\n}",
  "sourcePath": "/Users/sangil/workzone/isdt/contracts/Isdt.sol",
  "compiler": {
    "name": "solc",
    "version": "0.5.1+commit.c8a2cb62.Emscripten.clang"
  },
  "schemaVersion": "3.0.1",
  "updatedAt": "2020-01-16T05:48:01.543Z",
  "devdoc": {
    "methods": {}
  },
  "userdoc": {
    "methods": {}
  }
}